{
  "_format": "hh-sol-artifact-1",
  "contractName": "MultiTokenERC721",
  "sourceName": "contracts/ERC721.sol",
  "abi": [
    {
      "inputs": [],
      "stateMutability": "nonpayable",
      "type": "constructor"
    },
    {
      "anonymous": false,
      "inputs": [
        {
          "indexed": true,
          "internalType": "address",
          "name": "owner",
          "type": "address"
        },
        {
          "indexed": true,
          "internalType": "address",
          "name": "approved",
          "type": "address"
        },
        {
          "indexed": true,
          "internalType": "uint256",
          "name": "tokenId",
          "type": "uint256"
        }
      ],
      "name": "Approval",
      "type": "event"
    },
    {
      "anonymous": false,
      "inputs": [
        {
          "indexed": true,
          "internalType": "address",
          "name": "owner",
          "type": "address"
        },
        {
          "indexed": true,
          "internalType": "address",
          "name": "operator",
          "type": "address"
        },
        {
          "indexed": false,
          "internalType": "bool",
          "name": "approved",
          "type": "bool"
        }
      ],
      "name": "ApprovalForAll",
      "type": "event"
    },
    {
      "anonymous": false,
      "inputs": [
        {
          "indexed": false,
          "internalType": "uint256",
          "name": "_fromTokenId",
          "type": "uint256"
        },
        {
          "indexed": false,
          "internalType": "uint256",
          "name": "_toTokenId",
          "type": "uint256"
        }
      ],
      "name": "BatchMetadataUpdate",
      "type": "event"
    },
    {
      "anonymous": false,
      "inputs": [
        {
          "indexed": false,
          "internalType": "uint256",
          "name": "_tokenId",
          "type": "uint256"
        }
      ],
      "name": "MetadataUpdate",
      "type": "event"
    },
    {
      "anonymous": false,
      "inputs": [
        {
          "indexed": true,
          "internalType": "address",
          "name": "previousOwner",
          "type": "address"
        },
        {
          "indexed": true,
          "internalType": "address",
          "name": "newOwner",
          "type": "address"
        }
      ],
      "name": "OwnershipTransferred",
      "type": "event"
    },
    {
      "anonymous": false,
      "inputs": [
        {
          "indexed": true,
          "internalType": "address",
          "name": "from",
          "type": "address"
        },
        {
          "indexed": true,
          "internalType": "address",
          "name": "to",
          "type": "address"
        },
        {
          "indexed": true,
          "internalType": "uint256",
          "name": "tokenId",
          "type": "uint256"
        }
      ],
      "name": "Transfer",
      "type": "event"
    },
    {
      "inputs": [
        {
          "internalType": "uint256",
          "name": "",
          "type": "uint256"
        }
      ],
      "name": "Creator",
      "outputs": [
        {
          "internalType": "address",
          "name": "",
          "type": "address"
        }
      ],
      "stateMutability": "view",
      "type": "function"
    },
    {
      "inputs": [
        {
          "internalType": "uint256",
          "name": "",
          "type": "uint256"
        }
      ],
      "name": "NFTDetail",
      "outputs": [
        {
          "internalType": "string",
          "name": "nftName",
          "type": "string"
        },
        {
          "internalType": "string",
          "name": "description",
          "type": "string"
        },
        {
          "internalType": "uint256",
          "name": "price",
          "type": "uint256"
        },
        {
          "internalType": "string",
          "name": "nftURI",
          "type": "string"
        },
        {
          "internalType": "string",
          "name": "metaDataURI",
          "type": "string"
        }
      ],
      "stateMutability": "view",
      "type": "function"
    },
    {
      "inputs": [
        {
          "internalType": "address",
          "name": "to",
          "type": "address"
        },
        {
          "internalType": "uint256",
          "name": "tokenId",
          "type": "uint256"
        }
      ],
      "name": "approve",
      "outputs": [],
      "stateMutability": "nonpayable",
      "type": "function"
    },
    {
      "inputs": [
        {
          "internalType": "address",
          "name": "owner",
          "type": "address"
        }
      ],
      "name": "balanceOf",
      "outputs": [
        {
          "internalType": "uint256",
          "name": "",
          "type": "uint256"
        }
      ],
      "stateMutability": "view",
      "type": "function"
    },
    {
      "inputs": [
        {
          "internalType": "uint256",
          "name": "tokenId",
          "type": "uint256"
        }
      ],
      "name": "getApproved",
      "outputs": [
        {
          "internalType": "address",
          "name": "",
          "type": "address"
        }
      ],
      "stateMutability": "view",
      "type": "function"
    },
    {
      "inputs": [
        {
          "internalType": "uint256",
          "name": "_tokenId",
          "type": "uint256"
        }
      ],
      "name": "getDetails",
      "outputs": [
        {
          "components": [
            {
              "internalType": "string",
              "name": "nftName",
              "type": "string"
            },
            {
              "internalType": "string",
              "name": "description",
              "type": "string"
            },
            {
              "internalType": "uint256",
              "name": "price",
              "type": "uint256"
            },
            {
              "internalType": "string",
              "name": "nftURI",
              "type": "string"
            },
            {
              "internalType": "string",
              "name": "metaDataURI",
              "type": "string"
            }
          ],
          "internalType": "struct MultiTokenERC721.NFT",
          "name": "",
          "type": "tuple"
        }
      ],
      "stateMutability": "view",
      "type": "function"
    },
    {
      "inputs": [
        {
          "internalType": "address",
          "name": "owner",
          "type": "address"
        },
        {
          "internalType": "address",
          "name": "operator",
          "type": "address"
        }
      ],
      "name": "isApprovedForAll",
      "outputs": [
        {
          "internalType": "bool",
          "name": "",
          "type": "bool"
        }
      ],
      "stateMutability": "view",
      "type": "function"
    },
    {
      "inputs": [
        {
          "internalType": "string",
          "name": "nftName",
          "type": "string"
        },
        {
          "internalType": "uint256",
          "name": "price",
          "type": "uint256"
        },
        {
          "internalType": "string",
          "name": "description",
          "type": "string"
        },
        {
          "internalType": "string",
          "name": "nftURI",
          "type": "string"
        },
        {
          "internalType": "string",
          "name": "metaDataURI",
          "type": "string"
        }
      ],
      "name": "mint",
      "outputs": [],
      "stateMutability": "nonpayable",
      "type": "function"
    },
    {
      "inputs": [],
      "name": "name",
      "outputs": [
        {
          "internalType": "string",
          "name": "",
          "type": "string"
        }
      ],
      "stateMutability": "view",
      "type": "function"
    },
    {
      "inputs": [],
      "name": "owner",
      "outputs": [
        {
          "internalType": "address",
          "name": "",
          "type": "address"
        }
      ],
      "stateMutability": "view",
      "type": "function"
    },
    {
      "inputs": [
        {
          "internalType": "uint256",
          "name": "tokenId",
          "type": "uint256"
        }
      ],
      "name": "ownerOf",
      "outputs": [
        {
          "internalType": "address",
          "name": "",
          "type": "address"
        }
      ],
      "stateMutability": "view",
      "type": "function"
    },
    {
      "inputs": [],
      "name": "renounceOwnership",
      "outputs": [],
      "stateMutability": "nonpayable",
      "type": "function"
    },
    {
      "inputs": [
        {
          "internalType": "address",
          "name": "from",
          "type": "address"
        },
        {
          "internalType": "address",
          "name": "to",
          "type": "address"
        },
        {
          "internalType": "uint256",
          "name": "tokenId",
          "type": "uint256"
        }
      ],
      "name": "safeTransferFrom",
      "outputs": [],
      "stateMutability": "nonpayable",
      "type": "function"
    },
    {
      "inputs": [
        {
          "internalType": "address",
          "name": "from",
          "type": "address"
        },
        {
          "internalType": "address",
          "name": "to",
          "type": "address"
        },
        {
          "internalType": "uint256",
          "name": "tokenId",
          "type": "uint256"
        },
        {
          "internalType": "bytes",
          "name": "data",
          "type": "bytes"
        }
      ],
      "name": "safeTransferFrom",
      "outputs": [],
      "stateMutability": "nonpayable",
      "type": "function"
    },
    {
      "inputs": [
        {
          "internalType": "address",
          "name": "operator",
          "type": "address"
        },
        {
          "internalType": "bool",
          "name": "approved",
          "type": "bool"
        }
      ],
      "name": "setApprovalForAll",
      "outputs": [],
      "stateMutability": "nonpayable",
      "type": "function"
    },
    {
      "inputs": [
        {
          "internalType": "bytes4",
          "name": "interfaceId",
          "type": "bytes4"
        }
      ],
      "name": "supportsInterface",
      "outputs": [
        {
          "internalType": "bool",
          "name": "",
          "type": "bool"
        }
      ],
      "stateMutability": "view",
      "type": "function"
    },
    {
      "inputs": [],
      "name": "symbol",
      "outputs": [
        {
          "internalType": "string",
          "name": "",
          "type": "string"
        }
      ],
      "stateMutability": "view",
      "type": "function"
    },
    {
      "inputs": [],
      "name": "tokenId",
      "outputs": [
        {
          "internalType": "uint256",
          "name": "",
          "type": "uint256"
        }
      ],
      "stateMutability": "view",
      "type": "function"
    },
    {
      "inputs": [
        {
          "internalType": "uint256",
          "name": "_tokenId",
          "type": "uint256"
        }
      ],
      "name": "tokenURI",
      "outputs": [
        {
          "internalType": "string",
          "name": "",
          "type": "string"
        }
      ],
      "stateMutability": "view",
      "type": "function"
    },
    {
      "inputs": [
        {
          "internalType": "address",
          "name": "from",
          "type": "address"
        },
        {
          "internalType": "address",
          "name": "to",
          "type": "address"
        },
        {
          "internalType": "uint256",
          "name": "tokenId",
          "type": "uint256"
        }
      ],
      "name": "transferFrom",
      "outputs": [],
      "stateMutability": "nonpayable",
      "type": "function"
    },
    {
      "inputs": [
        {
          "internalType": "address",
          "name": "newOwner",
          "type": "address"
        }
      ],
      "name": "transferOwnership",
      "outputs": [],
      "stateMutability": "nonpayable",
      "type": "function"
    },
    {
      "inputs": [
        {
          "internalType": "uint256",
          "name": "_tokenId",
          "type": "uint256"
        },
        {
          "internalType": "string",
          "name": "newMetadataURI",
          "type": "string"
        }
      ],
      "name": "updateTokenMetadataURI",
      "outputs": [],
      "stateMutability": "nonpayable",
      "type": "function"
    }
  ],
  "bytecode": "0x608060405260016008553480156200001657600080fd5b5060405180602001604052806000815250604051806020016040528060008152508160009081620000489190620003cb565b5080600190816200005a9190620003cb565b5050506200007d620000716200008360201b60201c565b6200008b60201b60201c565b620004b2565b600033905090565b6000600760009054906101000a900473ffffffffffffffffffffffffffffffffffffffff16905081600760006101000a81548173ffffffffffffffffffffffffffffffffffffffff021916908373ffffffffffffffffffffffffffffffffffffffff1602179055508173ffffffffffffffffffffffffffffffffffffffff168173ffffffffffffffffffffffffffffffffffffffff167f8be0079c531659141344cd1fd0a4f28419497f9722a3daafe3b4186f6b6457e060405160405180910390a35050565b600081519050919050565b7f4e487b7100000000000000000000000000000000000000000000000000000000600052604160045260246000fd5b7f4e487b7100000000000000000000000000000000000000000000000000000000600052602260045260246000fd5b60006002820490506001821680620001d357607f821691505b602082108103620001e957620001e86200018b565b5b50919050565b60008190508160005260206000209050919050565b60006020601f8301049050919050565b600082821b905092915050565b600060088302620002537fffffffffffffffffffffffffffffffffffffffffffffffffffffffffffffffff8262000214565b6200025f868362000214565b95508019841693508086168417925050509392505050565b6000819050919050565b6000819050919050565b6000620002ac620002a6620002a08462000277565b62000281565b62000277565b9050919050565b6000819050919050565b620002c8836200028b565b620002e0620002d782620002b3565b84845462000221565b825550505050565b600090565b620002f7620002e8565b62000304818484620002bd565b505050565b5b818110156200032c5762000320600082620002ed565b6001810190506200030a565b5050565b601f8211156200037b576200034581620001ef565b620003508462000204565b8101602085101562000360578190505b620003786200036f8562000204565b83018262000309565b50505b505050565b600082821c905092915050565b6000620003a06000198460080262000380565b1980831691505092915050565b6000620003bb83836200038d565b9150826002028217905092915050565b620003d68262000151565b67ffffffffffffffff811115620003f257620003f16200015c565b5b620003fe8254620001ba565b6200040b82828562000330565b600060209050601f8311600181146200044357600084156200042e578287015190505b6200043a8582620003ad565b865550620004aa565b601f1984166200045386620001ef565b60005b828110156200047d5784890151825560018201915060208501945060208101905062000456565b868310156200049d578489015162000499601f8916826200038d565b8355505b6001600288020188555050505b505050505050565b6137b380620004c26000396000f3fe608060405234801561001057600080fd5b50600436106101425760003560e01c80638da5cb5b116100b8578063b93a89f71161007c578063b93a89f714610361578063c87b56dd14610391578063e985e9c5146103c1578063f2fde38b146103f1578063f41976081461040d578063fc452a531461042957610142565b80638da5cb5b146102bd57806395d89b41146102db578063a22cb465146102f9578063b1fd9cd414610315578063b88d4fde1461034557610142565b806323b872dd1161010a57806323b872dd146101ff57806342842e0e1461021b5780636352211e1461023757806370a0823114610267578063715018a61461029757806375682e79146102a157610142565b806301ffc9a71461014757806306fdde0314610177578063081812fc14610195578063095ea7b3146101c557806317d70f7c146101e1575b600080fd5b610161600480360381019061015c91906121d8565b61045d565b60405161016e9190612220565b60405180910390f35b61017f6104be565b60405161018c91906122cb565b60405180910390f35b6101af60048036038101906101aa9190612323565b610550565b6040516101bc9190612391565b60405180910390f35b6101df60048036038101906101da91906123d8565b610596565b005b6101e96106ad565b6040516101f69190612427565b60405180910390f35b61021960048036038101906102149190612442565b6106b3565b005b61023560048036038101906102309190612442565b610713565b005b610251600480360381019061024c9190612323565b610733565b60405161025e9190612391565b60405180910390f35b610281600480360381019061027c9190612495565b6107b9565b60405161028e9190612427565b60405180910390f35b61029f610870565b005b6102bb60048036038101906102b691906125f7565b610884565b005b6102c56108f9565b6040516102d29190612391565b60405180910390f35b6102e3610923565b6040516102f091906122cb565b60405180910390f35b610313600480360381019061030e919061267f565b6109b5565b005b61032f600480360381019061032a9190612323565b6109cb565b60405161033c9190612391565b60405180910390f35b61035f600480360381019061035a9190612760565b6109fe565b005b61037b60048036038101906103769190612323565b610a60565b60405161038891906128c7565b60405180910390f35b6103ab60048036038101906103a69190612323565b610cdf565b6040516103b891906122cb565b60405180910390f35b6103db60048036038101906103d691906128e9565b610e14565b6040516103e89190612220565b60405180910390f35b61040b60048036038101906104069190612495565b610ea8565b005b61042760048036038101906104229190612929565b610f2b565b005b610443600480360381019061043e9190612323565b61108e565b604051610454959493929190612a14565b60405180910390f35b6000634906490660e01b7bffffffffffffffffffffffffffffffffffffffffffffffffffffffff1916827bffffffffffffffffffffffffffffffffffffffffffffffffffffffff191614806104b757506104b6826112e4565b5b9050919050565b6060600080546104cd90612ab2565b80601f01602080910402602001604051908101604052809291908181526020018280546104f990612ab2565b80156105465780601f1061051b57610100808354040283529160200191610546565b820191906000526020600020905b81548152906001019060200180831161052957829003601f168201915b5050505050905090565b600061055b826113c6565b6004600083815260200190815260200160002060009054906101000a900473ffffffffffffffffffffffffffffffffffffffff169050919050565b60006105a182610733565b90508073ffffffffffffffffffffffffffffffffffffffff168373ffffffffffffffffffffffffffffffffffffffff1603610611576040517f08c379a000000000000000000000000000000000000000000000000000000000815260040161060890612b55565b60405180910390fd5b8073ffffffffffffffffffffffffffffffffffffffff16610630611411565b73ffffffffffffffffffffffffffffffffffffffff16148061065f575061065e81610659611411565b610e14565b5b61069e576040517f08c379a000000000000000000000000000000000000000000000000000000000815260040161069590612be7565b60405180910390fd5b6106a88383611419565b505050565b60085481565b6106c46106be611411565b826114d2565b610703576040517f08c379a00000000000000000000000000000000000000000000000000000000081526004016106fa90612c79565b60405180910390fd5b61070e838383611567565b505050565b61072e838383604051806020016040528060008152506109fe565b505050565b60008061073f83611860565b9050600073ffffffffffffffffffffffffffffffffffffffff168173ffffffffffffffffffffffffffffffffffffffff16036107b0576040517f08c379a00000000000000000000000000000000000000000000000000000000081526004016107a790612ce5565b60405180910390fd5b80915050919050565b60008073ffffffffffffffffffffffffffffffffffffffff168273ffffffffffffffffffffffffffffffffffffffff1603610829576040517f08c379a000000000000000000000000000000000000000000000000000000000815260040161082090612d77565b60405180910390fd5b600360008373ffffffffffffffffffffffffffffffffffffffff1673ffffffffffffffffffffffffffffffffffffffff168152602001908152602001600020549050919050565b61087861189d565b610882600061191b565b565b61088c61189d565b610895826119e1565b6108d4576040517f08c379a00000000000000000000000000000000000000000000000000000000081526004016108cb90612e09565b60405180910390fd5b80600b600084815260200190815260200160002090816108f49190612fd5565b505050565b6000600760009054906101000a900473ffffffffffffffffffffffffffffffffffffffff16905090565b60606001805461093290612ab2565b80601f016020809104026020016040519081016040528092919081815260200182805461095e90612ab2565b80156109ab5780601f10610980576101008083540402835291602001916109ab565b820191906000526020600020905b81548152906001019060200180831161098e57829003601f168201915b5050505050905090565b6109c76109c0611411565b8383611a22565b5050565b600a6020528060005260406000206000915054906101000a900473ffffffffffffffffffffffffffffffffffffffff1681565b610a0f610a09611411565b836114d2565b610a4e576040517f08c379a0000000000000000000000000000000000000000000000000000000008152600401610a4590612c79565b60405180910390fd5b610a5a84848484611b8e565b50505050565b610a6861213d565b600960008381526020019081526020016000206040518060a0016040529081600082018054610a9690612ab2565b80601f0160208091040260200160405190810160405280929190818152602001828054610ac290612ab2565b8015610b0f5780601f10610ae457610100808354040283529160200191610b0f565b820191906000526020600020905b815481529060010190602001808311610af257829003601f168201915b50505050508152602001600182018054610b2890612ab2565b80601f0160208091040260200160405190810160405280929190818152602001828054610b5490612ab2565b8015610ba15780601f10610b7657610100808354040283529160200191610ba1565b820191906000526020600020905b815481529060010190602001808311610b8457829003601f168201915b5050505050815260200160028201548152602001600382018054610bc490612ab2565b80601f0160208091040260200160405190810160405280929190818152602001828054610bf090612ab2565b8015610c3d5780601f10610c1257610100808354040283529160200191610c3d565b820191906000526020600020905b815481529060010190602001808311610c2057829003601f168201915b50505050508152602001600482018054610c5690612ab2565b80601f0160208091040260200160405190810160405280929190818152602001828054610c8290612ab2565b8015610ccf5780601f10610ca457610100808354040283529160200191610ccf565b820191906000526020600020905b815481529060010190602001808311610cb257829003601f168201915b5050505050815250509050919050565b6060610cea826119e1565b610d29576040517f08c379a0000000000000000000000000000000000000000000000000000000008152600401610d2090613119565b60405180910390fd5b6000610d33611bea565b90506000600b60008581526020019081526020016000208054610d5590612ab2565b80601f0160208091040260200160405190810160405280929190818152602001828054610d8190612ab2565b8015610dce5780601f10610da357610100808354040283529160200191610dce565b820191906000526020600020905b815481529060010190602001808311610db157829003601f168201915b505050505090506000825103610de8578092505050610e0f565b8181604051602001610dfb929190613175565b604051602081830303815290604052925050505b919050565b6000600560008473ffffffffffffffffffffffffffffffffffffffff1673ffffffffffffffffffffffffffffffffffffffff16815260200190815260200160002060008373ffffffffffffffffffffffffffffffffffffffff1673ffffffffffffffffffffffffffffffffffffffff16815260200190815260200160002060009054906101000a900460ff16905092915050565b610eb061189d565b600073ffffffffffffffffffffffffffffffffffffffff168173ffffffffffffffffffffffffffffffffffffffff1603610f1f576040517f08c379a0000000000000000000000000000000000000000000000000000000008152600401610f169061320b565b60405180910390fd5b610f288161191b565b50565b610f473360085460405180602001604052806000815250611c01565b610f5360085483611c5c565b33600a6000600854815260200190815260200160002060006101000a81548173ffffffffffffffffffffffffffffffffffffffff021916908373ffffffffffffffffffffffffffffffffffffffff16021790555080600b600060085481526020019081526020016000209081610fc99190612fd5565b5060006040518060a001604052808781526020018581526020018681526020018481526020018381525090508060096000600854815260200190815260200160002060008201518160000190816110209190612fd5565b5060208201518160010190816110369190612fd5565b506040820151816002015560608201518160030190816110569190612fd5565b50608082015181600401908161106c9190612fd5565b5090505060086000815461107f9061325a565b91905081905550505050505050565b60096020528060005260406000206000915090508060000180546110b190612ab2565b80601f01602080910402602001604051908101604052809291908181526020018280546110dd90612ab2565b801561112a5780601f106110ff5761010080835404028352916020019161112a565b820191906000526020600020905b81548152906001019060200180831161110d57829003601f168201915b50505050509080600101805461113f90612ab2565b80601f016020809104026020016040519081016040528092919081815260200182805461116b90612ab2565b80156111b85780601f1061118d576101008083540402835291602001916111b8565b820191906000526020600020905b81548152906001019060200180831161119b57829003601f168201915b5050505050908060020154908060030180546111d390612ab2565b80601f01602080910402602001604051908101604052809291908181526020018280546111ff90612ab2565b801561124c5780601f106112215761010080835404028352916020019161124c565b820191906000526020600020905b81548152906001019060200180831161122f57829003601f168201915b50505050509080600401805461126190612ab2565b80601f016020809104026020016040519081016040528092919081815260200182805461128d90612ab2565b80156112da5780601f106112af576101008083540402835291602001916112da565b820191906000526020600020905b8154815290600101906020018083116112bd57829003601f168201915b5050505050905085565b60007f80ac58cd000000000000000000000000000000000000000000000000000000007bffffffffffffffffffffffffffffffffffffffffffffffffffffffff1916827bffffffffffffffffffffffffffffffffffffffffffffffffffffffff191614806113af57507f5b5e139f000000000000000000000000000000000000000000000000000000007bffffffffffffffffffffffffffffffffffffffffffffffffffffffff1916827bffffffffffffffffffffffffffffffffffffffffffffffffffffffff1916145b806113bf57506113be82611d00565b5b9050919050565b6113cf816119e1565b61140e576040517f08c379a000000000000000000000000000000000000000000000000000000000815260040161140590612ce5565b60405180910390fd5b50565b600033905090565b816004600083815260200190815260200160002060006101000a81548173ffffffffffffffffffffffffffffffffffffffff021916908373ffffffffffffffffffffffffffffffffffffffff160217905550808273ffffffffffffffffffffffffffffffffffffffff1661148c83610733565b73ffffffffffffffffffffffffffffffffffffffff167f8c5be1e5ebec7d5bd14f71427d1e84f3dd0314c0f7b2291e5b200ac8c7c3b92560405160405180910390a45050565b6000806114de83610733565b90508073ffffffffffffffffffffffffffffffffffffffff168473ffffffffffffffffffffffffffffffffffffffff161480611520575061151f8185610e14565b5b8061155e57508373ffffffffffffffffffffffffffffffffffffffff1661154684610550565b73ffffffffffffffffffffffffffffffffffffffff16145b91505092915050565b8273ffffffffffffffffffffffffffffffffffffffff1661158782610733565b73ffffffffffffffffffffffffffffffffffffffff16146115dd576040517f08c379a00000000000000000000000000000000000000000000000000000000081526004016115d490613314565b60405180910390fd5b600073ffffffffffffffffffffffffffffffffffffffff168273ffffffffffffffffffffffffffffffffffffffff160361164c576040517f08c379a0000000000000000000000000000000000000000000000000000000008152600401611643906133a6565b60405180910390fd5b6116598383836001611d6a565b8273ffffffffffffffffffffffffffffffffffffffff1661167982610733565b73ffffffffffffffffffffffffffffffffffffffff16146116cf576040517f08c379a00000000000000000000000000000000000000000000000000000000081526004016116c690613314565b60405180910390fd5b6004600082815260200190815260200160002060006101000a81549073ffffffffffffffffffffffffffffffffffffffff02191690556001600360008573ffffffffffffffffffffffffffffffffffffffff1673ffffffffffffffffffffffffffffffffffffffff168152602001908152602001600020600082825403925050819055506001600360008473ffffffffffffffffffffffffffffffffffffffff1673ffffffffffffffffffffffffffffffffffffffff16815260200190815260200160002060008282540192505081905550816002600083815260200190815260200160002060006101000a81548173ffffffffffffffffffffffffffffffffffffffff021916908373ffffffffffffffffffffffffffffffffffffffff160217905550808273ffffffffffffffffffffffffffffffffffffffff168473ffffffffffffffffffffffffffffffffffffffff167fddf252ad1be2c89b69c2b068fc378daa952ba7f163c4a11628f55a4df523b3ef60405160405180910390a461185b8383836001611d70565b505050565b60006002600083815260200190815260200160002060009054906101000a900473ffffffffffffffffffffffffffffffffffffffff169050919050565b6118a5611411565b73ffffffffffffffffffffffffffffffffffffffff166118c36108f9565b73ffffffffffffffffffffffffffffffffffffffff1614611919576040517f08c379a000000000000000000000000000000000000000000000000000000000815260040161191090613412565b60405180910390fd5b565b6000600760009054906101000a900473ffffffffffffffffffffffffffffffffffffffff16905081600760006101000a81548173ffffffffffffffffffffffffffffffffffffffff021916908373ffffffffffffffffffffffffffffffffffffffff1602179055508173ffffffffffffffffffffffffffffffffffffffff168173ffffffffffffffffffffffffffffffffffffffff167f8be0079c531659141344cd1fd0a4f28419497f9722a3daafe3b4186f6b6457e060405160405180910390a35050565b60008073ffffffffffffffffffffffffffffffffffffffff16611a0383611860565b73ffffffffffffffffffffffffffffffffffffffff1614159050919050565b8173ffffffffffffffffffffffffffffffffffffffff168373ffffffffffffffffffffffffffffffffffffffff1603611a90576040517f08c379a0000000000000000000000000000000000000000000000000000000008152600401611a879061347e565b60405180910390fd5b80600560008573ffffffffffffffffffffffffffffffffffffffff1673ffffffffffffffffffffffffffffffffffffffff16815260200190815260200160002060008473ffffffffffffffffffffffffffffffffffffffff1673ffffffffffffffffffffffffffffffffffffffff16815260200190815260200160002060006101000a81548160ff0219169083151502179055508173ffffffffffffffffffffffffffffffffffffffff168373ffffffffffffffffffffffffffffffffffffffff167f17307eab39ab6107e8899845ad3d59bd9653f200f220920489ca2b5937696c3183604051611b819190612220565b60405180910390a3505050565b611b99848484611567565b611ba584848484611d76565b611be4576040517f08c379a0000000000000000000000000000000000000000000000000000000008152600401611bdb90613510565b60405180910390fd5b50505050565b606060405180602001604052806000815250905090565b611c0b8383611efd565b611c186000848484611d76565b611c57576040517f08c379a0000000000000000000000000000000000000000000000000000000008152600401611c4e90613510565b60405180910390fd5b505050565b611c65826119e1565b611ca4576040517f08c379a0000000000000000000000000000000000000000000000000000000008152600401611c9b906135a2565b60405180910390fd5b80600660008481526020019081526020016000209081611cc49190612fd5565b507ff8e1a15aba9398e019f0b49df1a4fde98ee17ae345cb5f6b5e2c27f5033e8ce782604051611cf49190612427565b60405180910390a15050565b60007f01ffc9a7000000000000000000000000000000000000000000000000000000007bffffffffffffffffffffffffffffffffffffffffffffffffffffffff1916827bffffffffffffffffffffffffffffffffffffffffffffffffffffffff1916149050919050565b50505050565b50505050565b6000611d978473ffffffffffffffffffffffffffffffffffffffff1661211a565b15611ef0578373ffffffffffffffffffffffffffffffffffffffff1663150b7a02611dc0611411565b8786866040518563ffffffff1660e01b8152600401611de29493929190613617565b6020604051808303816000875af1925050508015611e1e57506040513d601f19601f82011682018060405250810190611e1b9190613678565b60015b611ea0573d8060008114611e4e576040519150601f19603f3d011682016040523d82523d6000602084013e611e53565b606091505b506000815103611e98576040517f08c379a0000000000000000000000000000000000000000000000000000000008152600401611e8f90613510565b60405180910390fd5b805181602001fd5b63150b7a0260e01b7bffffffffffffffffffffffffffffffffffffffffffffffffffffffff1916817bffffffffffffffffffffffffffffffffffffffffffffffffffffffff191614915050611ef5565b600190505b949350505050565b600073ffffffffffffffffffffffffffffffffffffffff168273ffffffffffffffffffffffffffffffffffffffff1603611f6c576040517f08c379a0000000000000000000000000000000000000000000000000000000008152600401611f63906136f1565b60405180910390fd5b611f75816119e1565b15611fb5576040517f08c379a0000000000000000000000000000000000000000000000000000000008152600401611fac9061375d565b60405180910390fd5b611fc3600083836001611d6a565b611fcc816119e1565b1561200c576040517f08c379a00000000000000000000000000000000000000000000000000000000081526004016120039061375d565b60405180910390fd5b6001600360008473ffffffffffffffffffffffffffffffffffffffff1673ffffffffffffffffffffffffffffffffffffffff16815260200190815260200160002060008282540192505081905550816002600083815260200190815260200160002060006101000a81548173ffffffffffffffffffffffffffffffffffffffff021916908373ffffffffffffffffffffffffffffffffffffffff160217905550808273ffffffffffffffffffffffffffffffffffffffff16600073ffffffffffffffffffffffffffffffffffffffff167fddf252ad1be2c89b69c2b068fc378daa952ba7f163c4a11628f55a4df523b3ef60405160405180910390a4612116600083836001611d70565b5050565b6000808273ffffffffffffffffffffffffffffffffffffffff163b119050919050565b6040518060a0016040528060608152602001606081526020016000815260200160608152602001606081525090565b6000604051905090565b600080fd5b600080fd5b60007fffffffff0000000000000000000000000000000000000000000000000000000082169050919050565b6121b581612180565b81146121c057600080fd5b50565b6000813590506121d2816121ac565b92915050565b6000602082840312156121ee576121ed612176565b5b60006121fc848285016121c3565b91505092915050565b60008115159050919050565b61221a81612205565b82525050565b60006020820190506122356000830184612211565b92915050565b600081519050919050565b600082825260208201905092915050565b60005b8381101561227557808201518184015260208101905061225a565b60008484015250505050565b6000601f19601f8301169050919050565b600061229d8261223b565b6122a78185612246565b93506122b7818560208601612257565b6122c081612281565b840191505092915050565b600060208201905081810360008301526122e58184612292565b905092915050565b6000819050919050565b612300816122ed565b811461230b57600080fd5b50565b60008135905061231d816122f7565b92915050565b60006020828403121561233957612338612176565b5b60006123478482850161230e565b91505092915050565b600073ffffffffffffffffffffffffffffffffffffffff82169050919050565b600061237b82612350565b9050919050565b61238b81612370565b82525050565b60006020820190506123a66000830184612382565b92915050565b6123b581612370565b81146123c057600080fd5b50565b6000813590506123d2816123ac565b92915050565b600080604083850312156123ef576123ee612176565b5b60006123fd858286016123c3565b925050602061240e8582860161230e565b9150509250929050565b612421816122ed565b82525050565b600060208201905061243c6000830184612418565b92915050565b60008060006060848603121561245b5761245a612176565b5b6000612469868287016123c3565b935050602061247a868287016123c3565b925050604061248b8682870161230e565b9150509250925092565b6000602082840312156124ab576124aa612176565b5b60006124b9848285016123c3565b91505092915050565b600080fd5b600080fd5b7f4e487b7100000000000000000000000000000000000000000000000000000000600052604160045260246000fd5b61250482612281565b810181811067ffffffffffffffff82111715612523576125226124cc565b5b80604052505050565b600061253661216c565b905061254282826124fb565b919050565b600067ffffffffffffffff821115612562576125616124cc565b5b61256b82612281565b9050602081019050919050565b82818337600083830152505050565b600061259a61259584612547565b61252c565b9050828152602081018484840111156125b6576125b56124c7565b5b6125c1848285612578565b509392505050565b600082601f8301126125de576125dd6124c2565b5b81356125ee848260208601612587565b91505092915050565b6000806040838503121561260e5761260d612176565b5b600061261c8582860161230e565b925050602083013567ffffffffffffffff81111561263d5761263c61217b565b5b612649858286016125c9565b9150509250929050565b61265c81612205565b811461266757600080fd5b50565b60008135905061267981612653565b92915050565b6000806040838503121561269657612695612176565b5b60006126a4858286016123c3565b92505060206126b58582860161266a565b9150509250929050565b600067ffffffffffffffff8211156126da576126d96124cc565b5b6126e382612281565b9050602081019050919050565b60006127036126fe846126bf565b61252c565b90508281526020810184848401111561271f5761271e6124c7565b5b61272a848285612578565b509392505050565b600082601f830112612747576127466124c2565b5b81356127578482602086016126f0565b91505092915050565b6000806000806080858703121561277a57612779612176565b5b6000612788878288016123c3565b9450506020612799878288016123c3565b93505060406127aa8782880161230e565b925050606085013567ffffffffffffffff8111156127cb576127ca61217b565b5b6127d787828801612732565b91505092959194509250565b600082825260208201905092915050565b60006127ff8261223b565b61280981856127e3565b9350612819818560208601612257565b61282281612281565b840191505092915050565b612836816122ed565b82525050565b600060a083016000830151848203600086015261285982826127f4565b9150506020830151848203602086015261287382826127f4565b9150506040830151612888604086018261282d565b50606083015184820360608601526128a082826127f4565b915050608083015184820360808601526128ba82826127f4565b9150508091505092915050565b600060208201905081810360008301526128e1818461283c565b905092915050565b60008060408385031215612900576128ff612176565b5b600061290e858286016123c3565b925050602061291f858286016123c3565b9150509250929050565b600080600080600060a0868803121561294557612944612176565b5b600086013567ffffffffffffffff8111156129635761296261217b565b5b61296f888289016125c9565b95505060206129808882890161230e565b945050604086013567ffffffffffffffff8111156129a1576129a061217b565b5b6129ad888289016125c9565b935050606086013567ffffffffffffffff8111156129ce576129cd61217b565b5b6129da888289016125c9565b925050608086013567ffffffffffffffff8111156129fb576129fa61217b565b5b612a07888289016125c9565b9150509295509295909350565b600060a0820190508181036000830152612a2e8188612292565b90508181036020830152612a428187612292565b9050612a516040830186612418565b8181036060830152612a638185612292565b90508181036080830152612a778184612292565b90509695505050505050565b7f4e487b7100000000000000000000000000000000000000000000000000000000600052602260045260246000fd5b60006002820490506001821680612aca57607f821691505b602082108103612add57612adc612a83565b5b50919050565b7f4552433732313a20617070726f76616c20746f2063757272656e74206f776e6560008201527f7200000000000000000000000000000000000000000000000000000000000000602082015250565b6000612b3f602183612246565b9150612b4a82612ae3565b604082019050919050565b60006020820190508181036000830152612b6e81612b32565b9050919050565b7f4552433732313a20617070726f76652063616c6c6572206973206e6f7420746f60008201527f6b656e206f776e6572206f7220617070726f76656420666f7220616c6c000000602082015250565b6000612bd1603d83612246565b9150612bdc82612b75565b604082019050919050565b60006020820190508181036000830152612c0081612bc4565b9050919050565b7f4552433732313a2063616c6c6572206973206e6f7420746f6b656e206f776e6560008201527f72206f7220617070726f76656400000000000000000000000000000000000000602082015250565b6000612c63602d83612246565b9150612c6e82612c07565b604082019050919050565b60006020820190508181036000830152612c9281612c56565b9050919050565b7f4552433732313a20696e76616c696420746f6b656e2049440000000000000000600082015250565b6000612ccf601883612246565b9150612cda82612c99565b602082019050919050565b60006020820190508181036000830152612cfe81612cc2565b9050919050565b7f4552433732313a2061646472657373207a65726f206973206e6f74206120766160008201527f6c6964206f776e65720000000000000000000000000000000000000000000000602082015250565b6000612d61602983612246565b9150612d6c82612d05565b604082019050919050565b60006020820190508181036000830152612d9081612d54565b9050919050565b7f4552433732313a2055524920717565727920666f72206e6f6e6578697374656e60008201527f7420746f6b656e00000000000000000000000000000000000000000000000000602082015250565b6000612df3602783612246565b9150612dfe82612d97565b604082019050919050565b60006020820190508181036000830152612e2281612de6565b9050919050565b60008190508160005260206000209050919050565b60006020601f8301049050919050565b600082821b905092915050565b600060088302612e8b7fffffffffffffffffffffffffffffffffffffffffffffffffffffffffffffffff82612e4e565b612e958683612e4e565b95508019841693508086168417925050509392505050565b6000819050919050565b6000612ed2612ecd612ec8846122ed565b612ead565b6122ed565b9050919050565b6000819050919050565b612eec83612eb7565b612f00612ef882612ed9565b848454612e5b565b825550505050565b600090565b612f15612f08565b612f20818484612ee3565b505050565b5b81811015612f4457612f39600082612f0d565b600181019050612f26565b5050565b601f821115612f8957612f5a81612e29565b612f6384612e3e565b81016020851015612f72578190505b612f86612f7e85612e3e565b830182612f25565b50505b505050565b600082821c905092915050565b6000612fac60001984600802612f8e565b1980831691505092915050565b6000612fc58383612f9b565b9150826002028217905092915050565b612fde8261223b565b67ffffffffffffffff811115612ff757612ff66124cc565b5b6130018254612ab2565b61300c828285612f48565b600060209050601f83116001811461303f576000841561302d578287015190505b6130378582612fb9565b86555061309f565b601f19841661304d86612e29565b60005b8281101561307557848901518255600182019150602085019450602081019050613050565b86831015613092578489015161308e601f891682612f9b565b8355505b6001600288020188555050505b505050505050565b7f4552433732314d657461646174613a2055524920717565727920666f72206e6f60008201527f6e6578697374656e7420746f6b656e0000000000000000000000000000000000602082015250565b6000613103602f83612246565b915061310e826130a7565b604082019050919050565b60006020820190508181036000830152613132816130f6565b9050919050565b600081905092915050565b600061314f8261223b565b6131598185613139565b9350613169818560208601612257565b80840191505092915050565b60006131818285613144565b915061318d8284613144565b91508190509392505050565b7f4f776e61626c653a206e6577206f776e657220697320746865207a65726f206160008201527f6464726573730000000000000000000000000000000000000000000000000000602082015250565b60006131f5602683612246565b915061320082613199565b604082019050919050565b60006020820190508181036000830152613224816131e8565b9050919050565b7f4e487b7100000000000000000000000000000000000000000000000000000000600052601160045260246000fd5b6000613265826122ed565b91507fffffffffffffffffffffffffffffffffffffffffffffffffffffffffffffffff82036132975761329661322b565b5b600182019050919050565b7f4552433732313a207472616e736665722066726f6d20696e636f72726563742060008201527f6f776e6572000000000000000000000000000000000000000000000000000000602082015250565b60006132fe602583612246565b9150613309826132a2565b604082019050919050565b6000602082019050818103600083015261332d816132f1565b9050919050565b7f4552433732313a207472616e7366657220746f20746865207a65726f2061646460008201527f7265737300000000000000000000000000000000000000000000000000000000602082015250565b6000613390602483612246565b915061339b82613334565b604082019050919050565b600060208201905081810360008301526133bf81613383565b9050919050565b7f4f776e61626c653a2063616c6c6572206973206e6f7420746865206f776e6572600082015250565b60006133fc602083612246565b9150613407826133c6565b602082019050919050565b6000602082019050818103600083015261342b816133ef565b9050919050565b7f4552433732313a20617070726f766520746f2063616c6c657200000000000000600082015250565b6000613468601983612246565b915061347382613432565b602082019050919050565b600060208201905081810360008301526134978161345b565b9050919050565b7f4552433732313a207472616e7366657220746f206e6f6e20455243373231526560008201527f63656976657220696d706c656d656e7465720000000000000000000000000000602082015250565b60006134fa603283612246565b91506135058261349e565b604082019050919050565b60006020820190508181036000830152613529816134ed565b9050919050565b7f45524337323155524953746f726167653a2055524920736574206f66206e6f6e60008201527f6578697374656e7420746f6b656e000000000000000000000000000000000000602082015250565b600061358c602e83612246565b915061359782613530565b604082019050919050565b600060208201905081810360008301526135bb8161357f565b9050919050565b600081519050919050565b600082825260208201905092915050565b60006135e9826135c2565b6135f381856135cd565b9350613603818560208601612257565b61360c81612281565b840191505092915050565b600060808201905061362c6000830187612382565b6136396020830186612382565b6136466040830185612418565b818103606083015261365881846135de565b905095945050505050565b600081519050613672816121ac565b92915050565b60006020828403121561368e5761368d612176565b5b600061369c84828501613663565b91505092915050565b7f4552433732313a206d696e7420746f20746865207a65726f2061646472657373600082015250565b60006136db602083612246565b91506136e6826136a5565b602082019050919050565b6000602082019050818103600083015261370a816136ce565b9050919050565b7f4552433732313a20746f6b656e20616c7265616479206d696e74656400000000600082015250565b6000613747601c83612246565b915061375282613711565b602082019050919050565b600060208201905081810360008301526137768161373a565b905091905056fea26469706673582212206384334aa6ca6e77b9480eeb64b023fa5f44e85d6bf9ee8aa250eff3ce24960f64736f6c63430008120033",
  "linkReferences": {},
  "deployedLinkReferences": {}
}